{
  "_format": "hh-sol-artifact-1",
  "contractName": "Carbor_Foot_Print",
  "sourceName": "contracts/analysis.sol",
  "abi": [
    {
      "anonymous": false,
      "inputs": [
        {
          "indexed": true,
          "internalType": "address",
          "name": "user",
          "type": "address"
        },
        {
          "indexed": false,
          "internalType": "string",
          "name": "analysisRequest",
          "type": "string"
        },
        {
          "indexed": false,
          "internalType": "string",
          "name": "analysisResult",
          "type": "string"
        }
      ],
      "name": "DataAdded",
      "type": "event"
    },
    {
      "inputs": [
        {
          "internalType": "string",
          "name": "analysisRequest",
          "type": "string"
        },
        {
          "internalType": "string",
          "name": "analysisResult",
          "type": "string"
        }
      ],
      "name": "addAnalyzedData",
      "outputs": [],
      "stateMutability": "nonpayable",
      "type": "function"
    },
    {
      "inputs": [
        {
          "internalType": "address",
          "name": "",
          "type": "address"
        },
        {
          "internalType": "uint256",
          "name": "",
          "type": "uint256"
        }
      ],
      "name": "analyzedData",
      "outputs": [
        {
          "internalType": "string",
          "name": "analysisRequest",
          "type": "string"
        },
        {
          "internalType": "string",
          "name": "analysisResult",
          "type": "string"
        },
        {
          "internalType": "uint256",
          "name": "storedTimestamp",
          "type": "uint256"
        }
      ],
      "stateMutability": "view",
      "type": "function"
    },
    {
      "inputs": [],
      "name": "getAllAnalyzedData",
      "outputs": [
        {
          "components": [
            {
              "internalType": "string",
              "name": "analysisRequest",
              "type": "string"
            },
            {
              "internalType": "string",
              "name": "analysisResult",
              "type": "string"
            },
            {
              "internalType": "uint256",
              "name": "storedTimestamp",
              "type": "uint256"
            }
          ],
          "internalType": "struct Carbor_Foot_Print.Data[]",
          "name": "",
          "type": "tuple[]"
        }
      ],
      "stateMutability": "view",
      "type": "function"
    },
    {
      "inputs": [
        {
          "internalType": "uint256",
          "name": "_id",
          "type": "uint256"
        }
      ],
      "name": "getOneAnalyzedData",
      "outputs": [
        {
          "components": [
            {
              "internalType": "string",
              "name": "analysisRequest",
              "type": "string"
            },
            {
              "internalType": "string",
              "name": "analysisResult",
              "type": "string"
            },
            {
              "internalType": "uint256",
              "name": "storedTimestamp",
              "type": "uint256"
            }
          ],
          "internalType": "struct Carbor_Foot_Print.Data",
          "name": "",
          "type": "tuple"
        }
      ],
      "stateMutability": "view",
      "type": "function"
    }
  ],
  "bytecode": "0x608060405234801561001057600080fd5b50611015806100206000396000f3fe608060405234801561001057600080fd5b506004361061004c5760003560e01c806331d016371461005157806335767e6a14610083578063506fa335146100a1578063738f49a1146100d1575b600080fd5b61006b60048036038101906100669190610790565b6100ed565b60405161007a9392919061086f565b60405180910390f35b61008b610244565b6040516100989190610a26565b60405180910390f35b6100bb60048036038101906100b69190610a48565b61040d565b6040516100c89190610acc565b60405180910390f35b6100eb60048036038101906100e69190610c23565b6105b3565b005b6000602052816000526040600020818154811061010957600080fd5b90600052602060002090600302016000915091505080600001805461012d90610cca565b80601f016020809104026020016040519081016040528092919081815260200182805461015990610cca565b80156101a65780601f1061017b576101008083540402835291602001916101a6565b820191906000526020600020905b81548152906001019060200180831161018957829003601f168201915b5050505050908060010180546101bb90610cca565b80601f01602080910402602001604051908101604052809291908181526020018280546101e790610cca565b80156102345780601f1061020957610100808354040283529160200191610234565b820191906000526020600020905b81548152906001019060200180831161021757829003601f168201915b5050505050908060020154905083565b60606000803373ffffffffffffffffffffffffffffffffffffffff1673ffffffffffffffffffffffffffffffffffffffff168152602001908152602001600020805480602002602001604051908101604052809291908181526020016000905b8282101561040457838290600052602060002090600302016040518060600160405290816000820180546102d790610cca565b80601f016020809104026020016040519081016040528092919081815260200182805461030390610cca565b80156103505780601f1061032557610100808354040283529160200191610350565b820191906000526020600020905b81548152906001019060200180831161033357829003601f168201915b5050505050815260200160018201805461036990610cca565b80601f016020809104026020016040519081016040528092919081815260200182805461039590610cca565b80156103e25780601f106103b7576101008083540402835291602001916103e2565b820191906000526020600020905b8154815290600101906020018083116103c557829003601f168201915b50505050508152602001600282015481525050815260200190600101906102a4565b50505050905090565b6104156106c7565b6000803373ffffffffffffffffffffffffffffffffffffffff1673ffffffffffffffffffffffffffffffffffffffff168152602001908152602001600020828154811061046557610464610cfb565b5b906000526020600020906003020160405180606001604052908160008201805461048e90610cca565b80601f01602080910402602001604051908101604052809291908181526020018280546104ba90610cca565b80156105075780601f106104dc57610100808354040283529160200191610507565b820191906000526020600020905b8154815290600101906020018083116104ea57829003601f168201915b5050505050815260200160018201805461052090610cca565b80601f016020809104026020016040519081016040528092919081815260200182805461054c90610cca565b80156105995780601f1061056e57610100808354040283529160200191610599565b820191906000526020600020905b81548152906001019060200180831161057c57829003601f168201915b505050505081526020016002820154815250509050919050565b600060405180606001604052808481526020018381526020014281525090506000803373ffffffffffffffffffffffffffffffffffffffff1673ffffffffffffffffffffffffffffffffffffffff168152602001908152602001600020819080600181540180825580915050600190039060005260206000209060030201600090919091909150600082015181600001908161064f9190610ed6565b5060208201518160010190816106659190610ed6565b506040820151816002015550503373ffffffffffffffffffffffffffffffffffffffff167f3b0af3f3a5d3301b9bfdb0eb319a15738892181de8389705987b0c4eae4bc9b284846040516106ba929190610fa8565b60405180910390a2505050565b60405180606001604052806060815260200160608152602001600081525090565b6000604051905090565b600080fd5b600080fd5b600073ffffffffffffffffffffffffffffffffffffffff82169050919050565b6000610727826106fc565b9050919050565b6107378161071c565b811461074257600080fd5b50565b6000813590506107548161072e565b92915050565b6000819050919050565b61076d8161075a565b811461077857600080fd5b50565b60008135905061078a81610764565b92915050565b600080604083850312156107a7576107a66106f2565b5b60006107b585828601610745565b92505060206107c68582860161077b565b9150509250929050565b600081519050919050565b600082825260208201905092915050565b60005b8381101561080a5780820151818401526020810190506107ef565b60008484015250505050565b6000601f19601f8301169050919050565b6000610832826107d0565b61083c81856107db565b935061084c8185602086016107ec565b61085581610816565b840191505092915050565b6108698161075a565b82525050565b600060608201905081810360008301526108898186610827565b9050818103602083015261089d8185610827565b90506108ac6040830184610860565b949350505050565b600081519050919050565b600082825260208201905092915050565b6000819050602082019050919050565b600082825260208201905092915050565b60006108fc826107d0565b61090681856108e0565b93506109168185602086016107ec565b61091f81610816565b840191505092915050565b6109338161075a565b82525050565b6000606083016000830151848203600086015261095682826108f1565b9150506020830151848203602086015261097082826108f1565b9150506040830151610985604086018261092a565b508091505092915050565b600061099c8383610939565b905092915050565b6000602082019050919050565b60006109bc826108b4565b6109c681856108bf565b9350836020820285016109d8856108d0565b8060005b85811015610a1457848403895281516109f58582610990565b9450610a00836109a4565b925060208a019950506001810190506109dc565b50829750879550505050505092915050565b60006020820190508181036000830152610a4081846109b1565b905092915050565b600060208284031215610a5e57610a5d6106f2565b5b6000610a6c8482850161077b565b91505092915050565b60006060830160008301518482036000860152610a9282826108f1565b91505060208301518482036020860152610aac82826108f1565b9150506040830151610ac1604086018261092a565b508091505092915050565b60006020820190508181036000830152610ae68184610a75565b905092915050565b600080fd5b600080fd5b7f4e487b7100000000000000000000000000000000000000000000000000000000600052604160045260246000fd5b610b3082610816565b810181811067ffffffffffffffff82111715610b4f57610b4e610af8565b5b80604052505050565b6000610b626106e8565b9050610b6e8282610b27565b919050565b600067ffffffffffffffff821115610b8e57610b8d610af8565b5b610b9782610816565b9050602081019050919050565b82818337600083830152505050565b6000610bc6610bc184610b73565b610b58565b905082815260208101848484011115610be257610be1610af3565b5b610bed848285610ba4565b509392505050565b600082601f830112610c0a57610c09610aee565b5b8135610c1a848260208601610bb3565b91505092915050565b60008060408385031215610c3a57610c396106f2565b5b600083013567ffffffffffffffff811115610c5857610c576106f7565b5b610c6485828601610bf5565b925050602083013567ffffffffffffffff811115610c8557610c846106f7565b5b610c9185828601610bf5565b9150509250929050565b7f4e487b7100000000000000000000000000000000000000000000000000000000600052602260045260246000fd5b60006002820490506001821680610ce257607f821691505b602082108103610cf557610cf4610c9b565b5b50919050565b7f4e487b7100000000000000000000000000000000000000000000000000000000600052603260045260246000fd5b60008190508160005260206000209050919050565b60006020601f8301049050919050565b600082821b905092915050565b600060088302610d8c7fffffffffffffffffffffffffffffffffffffffffffffffffffffffffffffffff82610d4f565b610d968683610d4f565b95508019841693508086168417925050509392505050565b6000819050919050565b6000610dd3610dce610dc98461075a565b610dae565b61075a565b9050919050565b6000819050919050565b610ded83610db8565b610e01610df982610dda565b848454610d5c565b825550505050565b600090565b610e16610e09565b610e21818484610de4565b505050565b5b81811015610e4557610e3a600082610e0e565b600181019050610e27565b5050565b601f821115610e8a57610e5b81610d2a565b610e6484610d3f565b81016020851015610e73578190505b610e87610e7f85610d3f565b830182610e26565b50505b505050565b600082821c905092915050565b6000610ead60001984600802610e8f565b1980831691505092915050565b6000610ec68383610e9c565b9150826002028217905092915050565b610edf826107d0565b67ffffffffffffffff811115610ef857610ef7610af8565b5b610f028254610cca565b610f0d828285610e49565b600060209050601f831160018114610f405760008415610f2e578287015190505b610f388582610eba565b865550610fa0565b601f198416610f4e86610d2a565b60005b82811015610f7657848901518255600182019150602085019450602081019050610f51565b86831015610f935784890151610f8f601f891682610e9c565b8355505b6001600288020188555050505b505050505050565b60006040820190508181036000830152610fc28185610827565b90508181036020830152610fd68184610827565b9050939250505056fea2646970667358221220346c98edcacc47d1aae870c4e0e7d7c8f500a000213a707a2abf6ec4aa0720c864736f6c63430008110033",
  "linkReferences": {},
  "deployedLinkReferences": {}
}